:09006A00E4F508F509F50AF50BAF
:1000D100C0E0C007C006C005C004C0D075D000751F
:1000E1008CFC758A18AC08AD09AE0AAF0B74012CF3
:1000F100F508E43DF509E43EF50AE43FF50BD0D0FF
:10010100D004D005D006D007D0E032AE82AF83EE66
:100111004F600905A11EBEFF011F80F322AE82AF11
:1001210083EE4F60159003E8C007C00612010CD0A2
:0B01310006D0071EBEFF011F80E72262
:08007300750C00750D00D200B0
:10013C0012040875827812044D7582001204157F22
:10014C0000BF0D005011EF900F7293F582C0071293
:10015C000415D0070F80EA020461AF828F0CAE1237
:10016C008E0D758278C007C00612044D7582001280
:10017C000415758222120415D006D0078F82C00692
:10018C00120415851182120415758221120415D0E2
:10019C00068E8212041585138212041502046175F1
:1001AC00110775120075137F758200120166758236
:1001BC007812044D7582401204157F08EF60197E89
:1001CC0080EE6011758200C007C006120415D006BF
:1001DC00D0071E80EC1F80E4120461750C00750DB5
:1001EC00002285820E85830F85F01022A2019200D9
:1001FC002285820C85520D22AF82AC0EAD0FAE1053
:10020C008C828D838EF0120F52FCA3120F52FD7E46
:10021C00007405250EF9E4350FFAAB1089828A8338
:10022C008BF0120F52F97B00EFC399FFEE9BFE741B
:10023C0002250EF9E4350FFAAB1089828A838BF014
:10024C00120F52F989527553008F828E83C005C0EC
:10025C0004120E26AE82AF837403250EF9E4350F1B
:10026C00FAAB1089828A838BF0120F52F98952757E
:10027C0053008E828F83120E26AE82AF83D004D0B1
:10028C0005EE2CFCEF3DFD7F807402250EFAE43563
:10029C000FFBAE108A828B838EF0120F52F514E591
:1002AC0014605D7403250EF9E4350FFAAB108982E6
:1002BC008A838BF0120F52FB8C008D018F02EB6046
:1002CC0033888289838AF0120F52FEA3A882A983F5
:1002DC003000048E158004EEF4F515851582C003EC
:1002EC00C002C001C000120415D000D001D002D051
:1002FC00031B80CA880489058A07050D1514809F85
:10030C007404250EFDE4350FFEAF108D828E838FA5
:10031C00F0120F52FFEF603A7403250EFCE4350F18
:10032C00FDAE108C828D838EF0120F52FEEE601D8E
:10033C003000067C007D0080047CFF7D008C82C038
:10034C0007C006120415D006D0071E80E0050D1F4D
:10035C0080C322AF827403250EFCE4350FFDAE1072
:10036C008C828D838EF0120F52250C14F511850D95
:10037C001275137F850C82C0071201667582781284
:10038C00044D758240120415D0078F8212020402AC
:10039C000461AD82AE83AFF07403250EFAE4350F21
:1003AC00FBAC108A828B838CF0120F52250C14F547
:1003BC0011850D1275137F850C82C007C006C00510
:1003CC0012016675827812044D758240120415D0A4
:1003DC0005D006D0078D828E838FF0120F52FC60F1
:1003EC00188C820DBD00010EC007C006C00512029C
:0C03FC0004D005D006D00780DC020461AC
:0D0F7200A83F8D142001DA12813FA1C8AF05
:1004080043928053937F4392405393BF22AF827E9F
:1004180008EF30E706D297A2978004C297A297D236
:100428009643A10043A100C2961E8F05ED2DFFEE55
:1004380070DFD29743A10043A100D29643A10043A5
:10044800A100C29622C29743A100C296020415D207
:100458009743A100D29602044DC29743A100D296B9
:1004680043A100D29722AF827E00D2977D088E04E6
:10047800EC2CFE43A100D296309703430601C296A6
:10048800DDECEF6002C29743A10043A100D296437E
:0A049800A10043A100C2968E82224B
:09007B007516647517D07518079D
:1004A200AF8275828AC00712044DD0078F82120470
:1004B2001575828B12045775820112046EAE827F0B
:1004C20000758200C007C00612046EAD82D006D04D
:1004D200077C00ED4207EC4206C007C00612046129
:1004E200D006D0078F828E8322AF8275828AC007A0
:1004F20012044DD0078F82120415851A8212041538
:10050200851982120415020461751967751A3E7500
:1005120082001204EB751900751A10758205020427
:10052200EB7582010204A27582020204A2758203A3
:100532000204A27582040204A27582011204A2AE10
:1005420082AF838E52EFF5533395E0F554F5559013
:10055200000AE4F5F0020E437582021204A2AE8292
:10056200E583C423CEC423541F6ECE541FCE6ECE59
:10057200FFE4FDFCEE2EFEEF33FFED33FDEC33FC2A
:10058200EE2EFEEF33FFED33FDEC338E828F838D43
:10059200F0227582031204A2AE82AF8385175285C0
:1005A2001853E4F554F555EF3395E0FD8E828F83B1
:1005B2008DF0020E437582041204A2AE82AF8385CF
:1005C2001652E4F553F554F555EF3395E0FD8E825E
:1005D2008F838DF0020E43E582FF75F002A4248220
:1005E200F582740F35F0F583E493F517A3E493F5E0
:0905F20018EF900F7F93F516221B
:090F7F00640A01D007C800140047
:1005FB005392DF439320C29522AF83E58290000094
:10060B00F0EFA3F0900000E0FEA3E0FF8E828F835B
:10061B00E0F51B90000074012EF0E43FA3F07F0087
:10062B00C3EF951B400122900000E0FCA3E0FE8C81
:10063B00828E83E0FB900FA493FA90000074012C40
:10064B00F0E43EA3F0EB75F002A42488F582740F5E
:10065B0035F0F583E493FCA3E493FE900000E0F9FE
:10066B00A3E0FB8A001AE8605489828B83E0F88848
:10067B000518ED60EED2958C828E83C007C006C044
:10068B0004C003C002C001C00012010CD000D00195
:10069B00D002D003D004D006C2958C828E83C006C4
:1006AB00C004C003C002C001C00012010CD000D0B6
:1006BB0001D002D003D004D006D00780B290000046
:1006CB00E02401F0A3E03400F0900032C0071201E7
:0706DB001ED0070F02062BE1
:100F88007707A706ED059805FC047004F403BC0375
:100F98005303F602CC027E023802FA011A1D2123FD
:0A0FA800272C31343B42464E5863BB
:06008400751D00751C0053
:1006E200439202439302439608439708439610436A
:1006F200971022851C8222A2919202A2B39203E554
:100702001D24F94069E51D75F003A49007117302D9
:10071200072602073602073E020746020753020770
:100722005B020763200205751D01804220033F75AD
:100732001D04803A200337751D02803230022F7566
:100742001D03802A300227300324751D00051CD3A7
:100752002220021A751D058015300312751D0680B0
:100762000D30020A300307751D00151CD322C32267
:10008A00752100752200E4F523F524F525F526F5FA
:10009A0027F528F529F52AF52BF52CF52DF52EF55A
:1000AA002FF530F531F532F533F534F535F53614EB
:0B00BA00F537F538F539753A7FC204C0
:10077200AF82C0071205D9D0078F2190178375F079
:10078200801201EEC2011201F87552007582001248
:1007920001FDAF2174302FF58212035FD2011201E5
:1007A200F890006402011EE4F533F534F535F536B0
:1007B20014F537F538F539753A7F225396FE43978B
:1007C200015396FD4397025396FB439704C2B0C26E
:1007D200B1C2B212050BD2B0758200020772901735
:1007E2008375F0801201EE7552787582001201FD58
:1007F20075825612035F7552787582021201FD7579
:10080200824112035F7552787582041201FD75826E
:100812005712035F90118D75F0801201EE75520030
:100822007582061201FD90179475F08012039E7571
:1008320052767582061201FD75824112035F75526E
:10084200007582071201FD90179875F08012039EC1
:100852007552767582071201FD75824102035F307F
:100862000419C3E52B94DCE52C9405E52D9400E5F1
:100872002E64809480500122C20422C3E52B94B0DE
:10088200E52C9404E52D9400E52E648094804006C6
:10089200E52A20E70122D204E521600CD2B0C2B1E0
:1008A200C2B275820012077290178375F08012012E
:1008B200EE75521B7582001201FD90178975F0804A
:1008C20012039E75521B7582021201FD90178975E3
:1008D200F08012039E75521B7582041201FD90175F
:1008E2008975F08012039E90118D75F0801201EED1
:1008F20075522F7582061201FD90178975F08012CC
:10090200039E75522F7582071201FD90178975F0AB
:100912008002039EE5217028C37480952774389560
:1009220028740195297480852AF063F08095F0502F
:10093200030209B4D2B1C2B0758201120772D32286
:100942007401B52149C374409527741F9528E49515
:10095200297480852AF063F08095F0400CD2B2C2EF
:10096200B1758202120772D322C374A095277486CE
:100972009528740195297480852AF063F08095F09A
:100982005030D2B0C2B1758200120772D322C37442
:1009920010952774279528E495297480852AF06399
:1009A200F08095F0500CD2B1C2B27582011207727A
:1009B200D322C32285824C7E0AC205E54B30E7175B
:1009C200D205C3E49548F548E49549F549E4954ACA
:1009D200F54AE4954BF54BC3E54894E8E5499403A1
:1009E200E54A9400E54B6480948050178547528510
:1009F2004C82C0061201FD75827512035FD0067D1E
:100A0200008068C3E5489440E5499442E54A940F62
:100A1200E54B648094805017854752854C82C0060E
:100A22001201FD75826D12035FD0067D03803C8545
:100A32004752854C82C0061201FD75822012035F67
:100A42007D037552E88D53E4F554F555854882854A
:100A52004983854AF0E54BC005120F00858248851F
:100A6200834985F04AF54BD005D006754500ED6007
:100A720062754D0AED6053154DE54D243BF97552F3
:100A82000AE4F553F554F555854882854983854A2C
:100A9200F0E54BC005C001120EB1AA82D00174303C
:100AA2002AF775520AE4F553F554F55585488285BF
:100AB2004983854AF0E54B120F00858248858349B8
:100AC20085F04AF54BD0051D80AAE54D14FE243B66
:100AD200F8762EE5484549454A454B700AEE14FF23
:100AE200243BF87630805CE5484549454A454B60F1
:100AF200501EEE243BF975520AE4F553F554F555B0
:100B0200854882854983854AF0E54BC006C00112BB
:100B12000EB1AA82D00174302AF775520AE4F55355
:100B2200F554F555854882854983854AF0E54B128F
:100B32000F0085824885834985F04AF54BD00680AF
:100B4200A68E073005071FEF243BF8762DEF6009CC
:100B52001FEF243BF8762080F4854652854C8212A2
:100B620001FD90003B75F04002039E12053B858219
:100B72002385832485F025F5261205B785822785EE
:100B8200832885F029F52A12055A85822B85832C24
:100B920085F02DF52E12059485822F85833085F000
:100BA20031F532E52745284529452A7016E52345C2
:100BB2002445254526600C12050B90006412011E87
:100BC2000522221208613004012212091650012264
:100BD200C3E5339527E5349528E5359529E536644F
:100BE20080852AF063F08095F0500C8527338528A4
:100BF20034852935852A36C3E5279537E528953882
:100C0200E5299539E52A6480853AF063F08095F00C
:100C1200500C852737852838852939852A3A901737
:100C22008375F0801201EE852B52852C53852D544D
:100C3200852E559003E8E4F5F0120E43858248852F
:100C4200834985F04AF54B75461B754770758200DE
:100C52001209B675461B7547708527488528498550
:100C6200294A852A4B7582021209B675461B7547B9
:100C720070852F4885304985314A85324B7582040B
:100C82001209B690118D75F0801201EE75462F751E
:100C9200477085334885344985354A85364B758298
:100CA200061209B675462F7547708537488538494B
:0C0CB20085394A853A4B7582070209B665
:100FB200000000000000002F0000000700070014DE
:100FC2007F147F14242A7F2A12231308646236496D
:100FD2005522500005030000001C2241000041225E
:100FE2001C0014083E081408083E08080000A0600F
:100FF20000080808080800606000002010080402C9
:101002003E5149453E00427F4000426151494621DE
:1010120041454B311814127F1027454545393C4A4A
:10102200494930017109050336494949360649499A
:10103200291E0036360000005636000008142241F0
:101042000014141414140041221408020151090658
:10105200324959513E7C1211127C7F494949363E30
:10106200414141227F4141221C7F494949417F0937
:101072000909013E4149497A7F0808087F00417FFA
:1010820041002040413F017F081422417F404040FF
:10109200407F020C027F7F0408107F3E4141413EA7
:1010A2007F090909063E4151215E7F0919294646F9
:1010B2004949493101017F01013F4040403F1F2022
:1010C20040201F3F4038403F6314081463070870F4
:1010D20008076151494543007F414100020408105D
:1010E200200041417F000402010204404040404090
:1010F200000102040020545454787F484444383894
:1011020044444420384444487F3854545418087E98
:1011120009010218A4A4A47C7F0804047800447D79
:1011220040004080847D007F1028440000417F40C1
:10113200007C041804787C08040478384444443859
:10114200FC2424241818242418FC7C0804040848CD
:1011520054545420043F4440203C4040207C1C20F6
:1011620040201C3C4030403C44281028441CA0A095
:10117200A07C4464544C44083641410000007F0086
:101182000000414136080804081008B20F050101A9
:10119200200000000000000000000000000000002D
:1011A20000000000000000F83300300000000000E2
:1011B20000000010000C00060010000C00060000E9
:1011C200004004C03F78044004C03F78044004005B
:1011D20000000070188820FCFF0821301E0000006B
:1011E20000F0000821F01C0003E01E1821001E0080
:1011F20000001EF021082388247019002700210016
:1012020010100016000E0000000000000000000098
:1012120000000000000000E007181804200240004F
:10122200000000024004201818E00700000000003F
:1012320000400240028001F00F80014002400200A3
:1012420000000100010001F01F0001000100010087
:1012520000008000B00070000000000000000000EC
:101262000000000001000100010001000100010076
:10127200010000003000300000000000000000000B
:1012820000000000600018000680016000180004E1
:10129200000000E00F1010082008201010E00F00DE
:1012A20000000010201020F83F0020002000000065
:1012B20000000070300828082408228821703000BD
:1012C20000000030180820882088204811300E00C5
:1012D2000000000007C00420241024F83F0024006E
:1012E200000000F8190821882088200811080E0043
:1012F200000000E00F1011882088201811000E0055
:1013020000000038000800083FC80038000800004C
:10131200000000701C8822082108218822701C000D
:10132200000000E0001031082208221011E00F0036
:1013320000000000000000C030C0300000000000CB
:10134200000000000000808060000000000000003B
:101352000000000001800240042008101008200054
:10136200004004400440044004400440044004009F
:101372000000000820101020084004800200010034
:1013820000000070004800083008360801F0000034
:1013920000C0073018C8272824E8231014E00B00E7
:1013A200000020003CC0233802E002002700380081
:1013B200200820F83F8820882088207011000E0025
:1013C20000C007301808200820082008103808003C
:1013D200000820F83F0820082008201010E00F0025
:1013E200000820F83F88208820E8230820101800F1
:1013F200000820F83F88208800E803080010000059
:1014020000C0073018082008200822381E000200F9
:10141200000820F83F0821000100010821F83F08D8
:1014220020000008200820F83F08200820000000C3
:101432000000C0008008800880F87F0800080000D3
:10144200000820F83F8820C001282618380820000C
:10145200000820F83F082000200020002000300073
:10146200000820F83FF800003FF800F83F0820008D
:10147200000820F83F3020C00000070818F83F0895
:1014820000E00F10100820082008201010E00F00C4
:10149200000820F83F0821080108010801F00000B7
:1014A20000E00F10180824082408381050E04F00FC
:1014B200000820F83F882088008803880C703000DC
:1014C20020000070388820082108210822381C00DA
:1014D20000180008000820F83F0820080018000043
:1014E200000800F81F0820002000200820F81F082C
:1014F200000800780088070038000EC8013800088C
:1015020000F803083C0007F8000007083CF8030055
:101512000008201830682C80038003682C183008DB
:101522002008003800C820003FC82038000800000A
:10153200001020083808260821C820382008180082
:1015420000000000000000FE7F0240024002400056
:101552000000000C003000C0010006003800C0008E
:10156200000000024002400240FE7F000000000036
:10157200000000000004000200020002000400005B
:1015820000008000800080008000800080008000D9
:1015920080000002000200040000000000000000C1
:1015A20000000000198024802280228022003F0057
:1015B200200800F83F0011802080200011000E005A
:1015C200000000000E001180208020802000110009
:1015D200000000000E0011802080208810F83F00DB
:1015E200200000001F80228022802280220013001F
:1015F20000000080208020F03F882088208800188A
:10160200000000006B80948094809480938060003E
:10161200000820F83F0021800080008020003F0069
:1016220020000080209820983F0020002000000029
:1016320000000000C0008080809880987F00000039
:10164200000820F83F00240002802D803080200016
:1016520000000008200820F83F00200020000000C1
:10166200008020803F80208000803F80208000001A
:101672003F8020803F0021800080008020003F00CA
:10168200200000001F8020802080208020001F007A
:1016920000808080FF00A1802080200011000E00C9
:1016A200000000000E00118020802080A080FF003A
:1016B2008080208020803F002180208000800100E7
:1016C20000000000338024802480248024801900BC
:1016D20000000080008000E01F80208020000000C9
:1016E200008000801F0020002000208010803F002A
:1016F2002080008001800E0030000880068001807A
:1017020000800F8030000C8003000C8030800F803E
:1017120000000080208031002E800E803180200069
:101722000080808081808E00700018800680018099
:1017320000000080218030802C80228021803000B7
:1017420000000000000000000080007C3F02400218
:10175200400000000000000000FFFF000000000049
:10176200000000024002407C3F80000000000000B8
:101772000000000600010001000200020004000453
:101782000093110802002020202020202020202069
:0A1792002D004D4158004D494E0056
:0400000002001132B7
:03000B000200D11F
:0C00C500E4F54EF54FF550F55102000E29
:03000E00020CEDF4
:100CBE0075A15575A1AA74F855B94404F5B975A175
:100CCE000090000512011E12013C1201AB1207BD6D
:100CDE00D2AFD2A9438901D28C1206E20205FB43A0
:100CEE009610439710120CBE9000021206041207C3
:100CFE00E020B4031207A9AC08AD09AE0AAF0BECA5
:100D0E00C3954EFCED954FFDEE9550FEEF9551FFC0
:100D1E00C3EC9432ED9400EE9400EF940040D28533
:100D2E00084E85094F850A50850B51120B6D80C1F7
:03179C0001000148
:100D3E00F9E55245534554455560777800C308E5AB
:100D4E005520E73BE55225E0F552E55333F553E5E3
:100D5E005433F554E55533F555E5829552E58395B3
:100D6E0053E5F09554E9955550D4C3E55513F55513
:100D7E00E55413F554E55313F553E55213F552E5C7
:100D8E00829552FCE5839553FDE5F09554FEE99569
:100D9E00554007F98EF08D838C82C3E55513F555BA
:100DAE00E55413F554E55313F553E55213F552D8A4
:100DBE00CEE922FB7A20E4FCFDFEFFE5822582F5DA
:100DCE0082E58333F583E5F033F5F0EB33FB401723
:100DDE00DAE98042E5822582F582E58333F583E503
:100DEE00F033F5F0EB33FBEC33FCED33FDEE33FE7D
:100DFE00EF33FFEC9552ED9553EE9554EF9555402C
:100E0E0013EC9552FCED9553FDEE9554FEEF955572
:080E1E00FF438201DABEEB2262
:06004000E478FFF6D8FD94
:10001E007903E94400601B7A0190179C780275A061
:10002E0000E493F2A308B8000205A0D9F4DAF27541
:02003E00A0FF21
:100E2600E5828552F0A4C582C0F08553F0A4D0F0C7
:100E360025F0C5838552F0A42583F58322AAF0FB0D
:100E4600E5828552F0A4FCADF0E5838552F0A42D31
:100E5600FDE435F0FEE5828553F0A42DFDE5F03E78
:100E6600FEE433FFEA8552F0A42EFEE5F03FFFE5EF
:100E7600838553F0A42EFEE5F03FFFE5828554F00E
:100E8600A42EFEE5F03FFFEB8552F0A42FFFEA8586
:100E960053F0A42FFFE5838554F0A42FFFE5828548
:0B0EA60055F0A42F8EF08D838C82226B
:100046007800E84400600A790075A000E4F309D856
:10005600FC7802E84400600C7901900000E4F0A30B
:04006600D8FCD9FAEF
:100EB100F9C2D530E715D2D5E4C39582F582E49520
:100EC10083F583E495F0F5F0E499F9E55530E715FC
:100ED100E4C39552F552E49553F553E49554F55412
:100EE100E49555F555E9120D3E30D512E4C39582CE
:100EF100F582E49583F583E495F0F5F0E49922FB1E
:100F0100C2D530E715D2D5E4C39582F582E4958345
:100F1100F583E495F0F5F0E49BFBE55530E717B276
:100F2100D5E4C39552F552E49553F553E49554F540
:100F310054E49555F555EB120DC130D513FBE4C3BF
:100F41009582F582E49583F583E495F0F5F0E49BD1
:010F5100227D
:0D001100758155120F6EE582600302000E2E
:100F520020F71430F6148883A88220F507E6A883C8
:100F620075830022E280F7E49322E0227582002258
:00000001FF
